{
  "_format": "hh-sol-artifact-1",
  "contractName": "BEEBToken",
  "sourceName": "contracts/ERC20.sol",
  "abi": [
    {
      "inputs": [],
      "stateMutability": "nonpayable",
      "type": "constructor"
    },
    {
      "inputs": [
        {
          "internalType": "address",
          "name": "spender",
          "type": "address"
        },
        {
          "internalType": "uint256",
          "name": "allowance",
          "type": "uint256"
        },
        {
          "internalType": "uint256",
          "name": "needed",
          "type": "uint256"
        }
      ],
      "name": "ERC20InsufficientAllowance",
      "type": "error"
    },
    {
      "inputs": [
        {
          "internalType": "address",
          "name": "sender",
          "type": "address"
        },
        {
          "internalType": "uint256",
          "name": "balance",
          "type": "uint256"
        },
        {
          "internalType": "uint256",
          "name": "needed",
          "type": "uint256"
        }
      ],
      "name": "ERC20InsufficientBalance",
      "type": "error"
    },
    {
      "inputs": [
        {
          "internalType": "address",
          "name": "approver",
          "type": "address"
        }
      ],
      "name": "ERC20InvalidApprover",
      "type": "error"
    },
    {
      "inputs": [
        {
          "internalType": "address",
          "name": "receiver",
          "type": "address"
        }
      ],
      "name": "ERC20InvalidReceiver",
      "type": "error"
    },
    {
      "inputs": [
        {
          "internalType": "address",
          "name": "sender",
          "type": "address"
        }
      ],
      "name": "ERC20InvalidSender",
      "type": "error"
    },
    {
      "inputs": [
        {
          "internalType": "address",
          "name": "spender",
          "type": "address"
        }
      ],
      "name": "ERC20InvalidSpender",
      "type": "error"
    },
    {
      "anonymous": false,
      "inputs": [
        {
          "indexed": true,
          "internalType": "address",
          "name": "owner",
          "type": "address"
        },
        {
          "indexed": true,
          "internalType": "address",
          "name": "spender",
          "type": "address"
        },
        {
          "indexed": false,
          "internalType": "uint256",
          "name": "value",
          "type": "uint256"
        }
      ],
      "name": "Approval",
      "type": "event"
    },
    {
      "anonymous": false,
      "inputs": [
        {
          "indexed": true,
          "internalType": "address",
          "name": "from",
          "type": "address"
        },
        {
          "indexed": true,
          "internalType": "address",
          "name": "to",
          "type": "address"
        },
        {
          "indexed": false,
          "internalType": "uint256",
          "name": "value",
          "type": "uint256"
        }
      ],
      "name": "Transfer",
      "type": "event"
    },
    {
      "inputs": [
        {
          "internalType": "address",
          "name": "owner",
          "type": "address"
        },
        {
          "internalType": "address",
          "name": "spender",
          "type": "address"
        }
      ],
      "name": "allowance",
      "outputs": [
        {
          "internalType": "uint256",
          "name": "",
          "type": "uint256"
        }
      ],
      "stateMutability": "view",
      "type": "function"
    },
    {
      "inputs": [
        {
          "internalType": "address",
          "name": "spender",
          "type": "address"
        },
        {
          "internalType": "uint256",
          "name": "value",
          "type": "uint256"
        }
      ],
      "name": "approve",
      "outputs": [
        {
          "internalType": "bool",
          "name": "",
          "type": "bool"
        }
      ],
      "stateMutability": "nonpayable",
      "type": "function"
    },
    {
      "inputs": [
        {
          "internalType": "address",
          "name": "account",
          "type": "address"
        }
      ],
      "name": "balanceOf",
      "outputs": [
        {
          "internalType": "uint256",
          "name": "",
          "type": "uint256"
        }
      ],
      "stateMutability": "view",
      "type": "function"
    },
    {
      "inputs": [],
      "name": "decimals",
      "outputs": [
        {
          "internalType": "uint8",
          "name": "",
          "type": "uint8"
        }
      ],
      "stateMutability": "view",
      "type": "function"
    },
    {
      "inputs": [],
      "name": "name",
      "outputs": [
        {
          "internalType": "string",
          "name": "",
          "type": "string"
        }
      ],
      "stateMutability": "view",
      "type": "function"
    },
    {
      "inputs": [],
      "name": "owner",
      "outputs": [
        {
          "internalType": "address",
          "name": "",
          "type": "address"
        }
      ],
      "stateMutability": "view",
      "type": "function"
    },
    {
      "inputs": [],
      "name": "symbol",
      "outputs": [
        {
          "internalType": "string",
          "name": "",
          "type": "string"
        }
      ],
      "stateMutability": "view",
      "type": "function"
    },
    {
      "inputs": [],
      "name": "totalSupply",
      "outputs": [
        {
          "internalType": "uint256",
          "name": "",
          "type": "uint256"
        }
      ],
      "stateMutability": "view",
      "type": "function"
    },
    {
      "inputs": [
        {
          "internalType": "address",
          "name": "to",
          "type": "address"
        },
        {
          "internalType": "uint256",
          "name": "value",
          "type": "uint256"
        }
      ],
      "name": "transfer",
      "outputs": [
        {
          "internalType": "bool",
          "name": "",
          "type": "bool"
        }
      ],
      "stateMutability": "nonpayable",
      "type": "function"
    },
    {
      "inputs": [
        {
          "internalType": "address",
          "name": "from",
          "type": "address"
        },
        {
          "internalType": "address",
          "name": "to",
          "type": "address"
        },
        {
          "internalType": "uint256",
          "name": "value",
          "type": "uint256"
        }
      ],
      "name": "transferFrom",
      "outputs": [
        {
          "internalType": "bool",
          "name": "",
          "type": "bool"
        }
      ],
      "stateMutability": "nonpayable",
      "type": "function"
    }
  ],
  "bytecode": "0x60806040523480156200001157600080fd5b506040518060400160405280600981526020017f42454542546f6b656e00000000000000000000000000000000000000000000008152506040518060400160405280600381526020017f42544b000000000000000000000000000000000000000000000000000000000081525081600390816200008f91906200066a565b508060049081620000a191906200066a565b50505033600560006101000a81548173ffffffffffffffffffffffffffffffffffffffff021916908373ffffffffffffffffffffffffffffffffffffffff1602179055506200012433620000fa6200012a60201b60201c565b600a620001089190620008e1565b6298968062000118919062000932565b6200013360201b60201c565b62000a85565b60006012905090565b600073ffffffffffffffffffffffffffffffffffffffff168273ffffffffffffffffffffffffffffffffffffffff1603620001a85760006040517fec442f050000000000000000000000000000000000000000000000000000000081526004016200019f9190620009c2565b60405180910390fd5b620001bc60008383620001c060201b60201c565b5050565b600073ffffffffffffffffffffffffffffffffffffffff168373ffffffffffffffffffffffffffffffffffffffff160362000216578060026000828254620002099190620009df565b92505081905550620002ec565b60008060008573ffffffffffffffffffffffffffffffffffffffff1673ffffffffffffffffffffffffffffffffffffffff16815260200190815260200160002054905081811015620002a5578381836040517fe450d38c0000000000000000000000000000000000000000000000000000000081526004016200029c9392919062000a2b565b60405180910390fd5b8181036000808673ffffffffffffffffffffffffffffffffffffffff1673ffffffffffffffffffffffffffffffffffffffff16815260200190815260200160002081905550505b600073ffffffffffffffffffffffffffffffffffffffff168273ffffffffffffffffffffffffffffffffffffffff160362000337578060026000828254039250508190555062000384565b806000808473ffffffffffffffffffffffffffffffffffffffff1673ffffffffffffffffffffffffffffffffffffffff168152602001908152602001600020600082825401925050819055505b8173ffffffffffffffffffffffffffffffffffffffff168373ffffffffffffffffffffffffffffffffffffffff167fddf252ad1be2c89b69c2b068fc378daa952ba7f163c4a11628f55a4df523b3ef83604051620003e3919062000a68565b60405180910390a3505050565b600081519050919050565b7f4e487b7100000000000000000000000000000000000000000000000000000000600052604160045260246000fd5b7f4e487b7100000000000000000000000000000000000000000000000000000000600052602260045260246000fd5b600060028204905060018216806200047257607f821691505b6020821081036200048857620004876200042a565b5b50919050565b60008190508160005260206000209050919050565b60006020601f8301049050919050565b600082821b905092915050565b600060088302620004f27fffffffffffffffffffffffffffffffffffffffffffffffffffffffffffffffff82620004b3565b620004fe8683620004b3565b95508019841693508086168417925050509392505050565b6000819050919050565b6000819050919050565b60006200054b620005456200053f8462000516565b62000520565b62000516565b9050919050565b6000819050919050565b62000567836200052a565b6200057f620005768262000552565b848454620004c0565b825550505050565b600090565b6200059662000587565b620005a38184846200055c565b505050565b5b81811015620005cb57620005bf6000826200058c565b600181019050620005a9565b5050565b601f8211156200061a57620005e4816200048e565b620005ef84620004a3565b81016020851015620005ff578190505b620006176200060e85620004a3565b830182620005a8565b50505b505050565b600082821c905092915050565b60006200063f600019846008026200061f565b1980831691505092915050565b60006200065a83836200062c565b9150826002028217905092915050565b6200067582620003f0565b67ffffffffffffffff811115620006915762000690620003fb565b5b6200069d825462000459565b620006aa828285620005cf565b600060209050601f831160018114620006e25760008415620006cd578287015190505b620006d985826200064c565b86555062000749565b601f198416620006f2866200048e565b60005b828110156200071c57848901518255600182019150602085019450602081019050620006f5565b868310156200073c578489015162000738601f8916826200062c565b8355505b6001600288020188555050505b505050505050565b7f4e487b7100000000000000000000000000000000000000000000000000000000600052601160045260246000fd5b60008160011c9050919050565b6000808291508390505b6001851115620007df57808604811115620007b757620007b662000751565b5b6001851615620007c75780820291505b8081029050620007d78562000780565b945062000797565b94509492505050565b600082620007fa5760019050620008cd565b816200080a5760009050620008cd565b81600181146200082357600281146200082e5762000864565b6001915050620008cd565b60ff84111562000843576200084262000751565b5b8360020a9150848211156200085d576200085c62000751565b5b50620008cd565b5060208310610133831016604e8410600b84101617156200089e5782820a90508381111562000898576200089762000751565b5b620008cd565b620008ad84848460016200078d565b92509050818404811115620008c757620008c662000751565b5b81810290505b9392505050565b600060ff82169050919050565b6000620008ee8262000516565b9150620008fb83620008d4565b92506200092a7fffffffffffffffffffffffffffffffffffffffffffffffffffffffffffffffff8484620007e8565b905092915050565b60006200093f8262000516565b91506200094c8362000516565b92508282026200095c8162000516565b9150828204841483151762000976576200097562000751565b5b5092915050565b600073ffffffffffffffffffffffffffffffffffffffff82169050919050565b6000620009aa826200097d565b9050919050565b620009bc816200099d565b82525050565b6000602082019050620009d96000830184620009b1565b92915050565b6000620009ec8262000516565b9150620009f98362000516565b925082820190508082111562000a145762000a1362000751565b5b92915050565b62000a258162000516565b82525050565b600060608201905062000a426000830186620009b1565b62000a51602083018562000a1a565b62000a60604083018462000a1a565b949350505050565b600060208201905062000a7f600083018462000a1a565b92915050565b610ea48062000a956000396000f3fe608060405234801561001057600080fd5b506004361061009e5760003560e01c806370a082311161006657806370a082311461015d5780638da5cb5b1461018d57806395d89b41146101ab578063a9059cbb146101c9578063dd62ed3e146101f95761009e565b806306fdde03146100a3578063095ea7b3146100c157806318160ddd146100f157806323b872dd1461010f578063313ce5671461013f575b600080fd5b6100ab610229565b6040516100b89190610af8565b60405180910390f35b6100db60048036038101906100d69190610bb3565b6102bb565b6040516100e89190610c0e565b60405180910390f35b6100f96102de565b6040516101069190610c38565b60405180910390f35b61012960048036038101906101249190610c53565b6102e8565b6040516101369190610c0e565b60405180910390f35b610147610317565b6040516101549190610cc2565b60405180910390f35b61017760048036038101906101729190610cdd565b610320565b6040516101849190610c38565b60405180910390f35b610195610368565b6040516101a29190610d19565b60405180910390f35b6101b361038e565b6040516101c09190610af8565b60405180910390f35b6101e360048036038101906101de9190610bb3565b610420565b6040516101f09190610c0e565b60405180910390f35b610213600480360381019061020e9190610d34565b610443565b6040516102209190610c38565b60405180910390f35b60606003805461023890610da3565b80601f016020809104026020016040519081016040528092919081815260200182805461026490610da3565b80156102b15780601f10610286576101008083540402835291602001916102b1565b820191906000526020600020905b81548152906001019060200180831161029457829003601f168201915b5050505050905090565b6000806102c66104ca565b90506102d38185856104d2565b600191505092915050565b6000600254905090565b6000806102f36104ca565b90506103008582856104e4565b61030b858585610578565b60019150509392505050565b60006012905090565b60008060008373ffffffffffffffffffffffffffffffffffffffff1673ffffffffffffffffffffffffffffffffffffffff168152602001908152602001600020549050919050565b600560009054906101000a900473ffffffffffffffffffffffffffffffffffffffff1681565b60606004805461039d90610da3565b80601f01602080910402602001604051908101604052809291908181526020018280546103c990610da3565b80156104165780601f106103eb57610100808354040283529160200191610416565b820191906000526020600020905b8154815290600101906020018083116103f957829003601f168201915b5050505050905090565b60008061042b6104ca565b9050610438818585610578565b600191505092915050565b6000600160008473ffffffffffffffffffffffffffffffffffffffff1673ffffffffffffffffffffffffffffffffffffffff16815260200190815260200160002060008373ffffffffffffffffffffffffffffffffffffffff1673ffffffffffffffffffffffffffffffffffffffff16815260200190815260200160002054905092915050565b600033905090565b6104df838383600161066c565b505050565b60006104f08484610443565b90507fffffffffffffffffffffffffffffffffffffffffffffffffffffffffffffffff81146105725781811015610562578281836040517ffb8f41b200000000000000000000000000000000000000000000000000000000815260040161055993929190610dd4565b60405180910390fd5b6105718484848403600061066c565b5b50505050565b600073ffffffffffffffffffffffffffffffffffffffff168373ffffffffffffffffffffffffffffffffffffffff16036105ea5760006040517f96c6fd1e0000000000000000000000000000000000000000000000000000000081526004016105e19190610d19565b60405180910390fd5b600073ffffffffffffffffffffffffffffffffffffffff168273ffffffffffffffffffffffffffffffffffffffff160361065c5760006040517fec442f050000000000000000000000000000000000000000000000000000000081526004016106539190610d19565b60405180910390fd5b610667838383610843565b505050565b600073ffffffffffffffffffffffffffffffffffffffff168473ffffffffffffffffffffffffffffffffffffffff16036106de5760006040517fe602df050000000000000000000000000000000000000000000000000000000081526004016106d59190610d19565b60405180910390fd5b600073ffffffffffffffffffffffffffffffffffffffff168373ffffffffffffffffffffffffffffffffffffffff16036107505760006040517f94280d620000000000000000000000000000000000000000000000000000000081526004016107479190610d19565b60405180910390fd5b81600160008673ffffffffffffffffffffffffffffffffffffffff1673ffffffffffffffffffffffffffffffffffffffff16815260200190815260200160002060008573ffffffffffffffffffffffffffffffffffffffff1673ffffffffffffffffffffffffffffffffffffffff16815260200190815260200160002081905550801561083d578273ffffffffffffffffffffffffffffffffffffffff168473ffffffffffffffffffffffffffffffffffffffff167f8c5be1e5ebec7d5bd14f71427d1e84f3dd0314c0f7b2291e5b200ac8c7c3b925846040516108349190610c38565b60405180910390a35b50505050565b600073ffffffffffffffffffffffffffffffffffffffff168373ffffffffffffffffffffffffffffffffffffffff16036108955780600260008282546108899190610e3a565b92505081905550610968565b60008060008573ffffffffffffffffffffffffffffffffffffffff1673ffffffffffffffffffffffffffffffffffffffff16815260200190815260200160002054905081811015610921578381836040517fe450d38c00000000000000000000000000000000000000000000000000000000815260040161091893929190610dd4565b60405180910390fd5b8181036000808673ffffffffffffffffffffffffffffffffffffffff1673ffffffffffffffffffffffffffffffffffffffff16815260200190815260200160002081905550505b600073ffffffffffffffffffffffffffffffffffffffff168273ffffffffffffffffffffffffffffffffffffffff16036109b157806002600082825403925050819055506109fe565b806000808473ffffffffffffffffffffffffffffffffffffffff1673ffffffffffffffffffffffffffffffffffffffff168152602001908152602001600020600082825401925050819055505b8173ffffffffffffffffffffffffffffffffffffffff168373ffffffffffffffffffffffffffffffffffffffff167fddf252ad1be2c89b69c2b068fc378daa952ba7f163c4a11628f55a4df523b3ef83604051610a5b9190610c38565b60405180910390a3505050565b600081519050919050565b600082825260208201905092915050565b60005b83811015610aa2578082015181840152602081019050610a87565b60008484015250505050565b6000601f19601f8301169050919050565b6000610aca82610a68565b610ad48185610a73565b9350610ae4818560208601610a84565b610aed81610aae565b840191505092915050565b60006020820190508181036000830152610b128184610abf565b905092915050565b600080fd5b600073ffffffffffffffffffffffffffffffffffffffff82169050919050565b6000610b4a82610b1f565b9050919050565b610b5a81610b3f565b8114610b6557600080fd5b50565b600081359050610b7781610b51565b92915050565b6000819050919050565b610b9081610b7d565b8114610b9b57600080fd5b50565b600081359050610bad81610b87565b92915050565b60008060408385031215610bca57610bc9610b1a565b5b6000610bd885828601610b68565b9250506020610be985828601610b9e565b9150509250929050565b60008115159050919050565b610c0881610bf3565b82525050565b6000602082019050610c236000830184610bff565b92915050565b610c3281610b7d565b82525050565b6000602082019050610c4d6000830184610c29565b92915050565b600080600060608486031215610c6c57610c6b610b1a565b5b6000610c7a86828701610b68565b9350506020610c8b86828701610b68565b9250506040610c9c86828701610b9e565b9150509250925092565b600060ff82169050919050565b610cbc81610ca6565b82525050565b6000602082019050610cd76000830184610cb3565b92915050565b600060208284031215610cf357610cf2610b1a565b5b6000610d0184828501610b68565b91505092915050565b610d1381610b3f565b82525050565b6000602082019050610d2e6000830184610d0a565b92915050565b60008060408385031215610d4b57610d4a610b1a565b5b6000610d5985828601610b68565b9250506020610d6a85828601610b68565b9150509250929050565b7f4e487b7100000000000000000000000000000000000000000000000000000000600052602260045260246000fd5b60006002820490506001821680610dbb57607f821691505b602082108103610dce57610dcd610d74565b5b50919050565b6000606082019050610de96000830186610d0a565b610df66020830185610c29565b610e036040830184610c29565b949350505050565b7f4e487b7100000000000000000000000000000000000000000000000000000000600052601160045260246000fd5b6000610e4582610b7d565b9150610e5083610b7d565b9250828201905080821115610e6857610e67610e0b565b5b9291505056fea2646970667358221220d34d4e5a98b8aba52366354b8cd512ad6f282cb468d22a46b8bd39dba036d8a464736f6c63430008180033",
  "linkReferences": {},
  "deployedLinkReferences": {}
}