{
  "_format": "hh-sol-artifact-1",
  "contractName": "Multisig",
  "sourceName": "contracts/MultiSig.sol",
  "abi": [
    {
      "inputs": [
        {
          "internalType": "uint8",
          "name": "_quorum",
          "type": "uint8"
        },
        {
          "internalType": "address[]",
          "name": "_validSigners",
          "type": "address[]"
        }
      ],
      "stateMutability": "nonpayable",
      "type": "constructor"
    },
    {
      "inputs": [
        {
          "internalType": "uint8",
          "name": "_txId",
          "type": "uint8"
        }
      ],
      "name": "approveTx",
      "outputs": [],
      "stateMutability": "nonpayable",
      "type": "function"
    },
    {
      "inputs": [],
      "name": "count",
      "outputs": [
        {
          "internalType": "uint8",
          "name": "",
          "type": "uint8"
        }
      ],
      "stateMutability": "view",
      "type": "function"
    },
    {
      "inputs": [],
      "name": "noOfValidSigners",
      "outputs": [
        {
          "internalType": "uint8",
          "name": "",
          "type": "uint8"
        }
      ],
      "stateMutability": "view",
      "type": "function"
    },
    {
      "inputs": [],
      "name": "quorum",
      "outputs": [
        {
          "internalType": "uint8",
          "name": "",
          "type": "uint8"
        }
      ],
      "stateMutability": "view",
      "type": "function"
    },
    {
      "inputs": [
        {
          "internalType": "uint256",
          "name": "_amount",
          "type": "uint256"
        },
        {
          "internalType": "address",
          "name": "_recipient",
          "type": "address"
        },
        {
          "internalType": "address",
          "name": "_tokenAddress",
          "type": "address"
        }
      ],
      "name": "transfer",
      "outputs": [],
      "stateMutability": "nonpayable",
      "type": "function"
    },
    {
      "inputs": [],
      "name": "txCount",
      "outputs": [
        {
          "internalType": "uint256",
          "name": "",
          "type": "uint256"
        }
      ],
      "stateMutability": "view",
      "type": "function"
    }
  ],
  "bytecode": "0x60806040523480156200001157600080fd5b50604051620019bf380380620019bf833981810160405281019062000037919062000552565b816000806101000a81548160ff021916908360ff16021790555060005b81518110156200021d57600073ffffffffffffffffffffffffffffffffffffffff168282815181106200008c576200008b620005b8565b5b602002602001015173ffffffffffffffffffffffffffffffffffffffff1603620000ed576040517f08c379a0000000000000000000000000000000000000000000000000000000008152600401620000e49062000648565b60405180910390fd5b60046000838381518110620001075762000106620005b8565b5b602002602001015173ffffffffffffffffffffffffffffffffffffffff1673ffffffffffffffffffffffffffffffffffffffff16815260200190815260200160002060009054906101000a900460ff16156200019a576040517f08c379a00000000000000000000000000000000000000000000000000000000081526004016200019190620006ba565b60405180910390fd5b600160046000848481518110620001b657620001b5620005b8565b5b602002602001015173ffffffffffffffffffffffffffffffffffffffff1673ffffffffffffffffffffffffffffffffffffffff16815260200190815260200160002060006101000a81548160ff021916908315150217905550808060010191505062000054565b508051600060016101000a81548160ff021916908360ff160217905550600460003373ffffffffffffffffffffffffffffffffffffffff1673ffffffffffffffffffffffffffffffffffffffff16815260200190815260200160002060009054906101000a900460ff166200031e576001600460003373ffffffffffffffffffffffffffffffffffffffff1673ffffffffffffffffffffffffffffffffffffffff16815260200190815260200160002060006101000a81548160ff0219169083151502179055506001600060018282829054906101000a900460ff166200030591906200070b565b92506101000a81548160ff021916908360ff1602179055505b505062000747565b6000604051905090565b600080fd5b600080fd5b600060ff82169050919050565b62000352816200033a565b81146200035e57600080fd5b50565b600081519050620003728162000347565b92915050565b600080fd5b6000601f19601f8301169050919050565b7f4e487b7100000000000000000000000000000000000000000000000000000000600052604160045260246000fd5b620003c8826200037d565b810181811067ffffffffffffffff82111715620003ea57620003e96200038e565b5b80604052505050565b6000620003ff62000326565b90506200040d8282620003bd565b919050565b600067ffffffffffffffff82111562000430576200042f6200038e565b5b602082029050602081019050919050565b600080fd5b600073ffffffffffffffffffffffffffffffffffffffff82169050919050565b6000620004738262000446565b9050919050565b620004858162000466565b81146200049157600080fd5b50565b600081519050620004a5816200047a565b92915050565b6000620004c2620004bc8462000412565b620003f3565b90508083825260208201905060208402830185811115620004e857620004e762000441565b5b835b8181101562000515578062000500888262000494565b845260208401935050602081019050620004ea565b5050509392505050565b600082601f83011262000537576200053662000378565b5b815162000549848260208601620004ab565b91505092915050565b600080604083850312156200056c576200056b62000330565b5b60006200057c8582860162000361565b925050602083015167ffffffffffffffff811115620005a0576200059f62000335565b5b620005ae858286016200051f565b9150509250929050565b7f4e487b7100000000000000000000000000000000000000000000000000000000600052603260045260246000fd5b600082825260208201905092915050565b7f7a65726f2061646472657373206e6f7420616c6c6f7765640000000000000000600082015250565b600062000630601883620005e7565b91506200063d82620005f8565b602082019050919050565b60006020820190508181036000830152620006638162000621565b9050919050565b7f43616e2774207369676e20747769636500000000000000000000000000000000600082015250565b6000620006a2601083620005e7565b9150620006af826200066a565b602082019050919050565b60006020820190508181036000830152620006d58162000693565b9050919050565b7f4e487b7100000000000000000000000000000000000000000000000000000000600052601160045260246000fd5b600062000718826200033a565b915062000725836200033a565b9250828201905060ff811115620007415762000740620006dc565b5b92915050565b61126880620007576000396000f3fe608060405234801561001057600080fd5b50600436106100625760003560e01c806306661abd146100675780631703a0181461008557806317eff51b146100a35780632f430e17146100c15780633c540687146100dd578063ccb570e3146100fb575b600080fd5b61006f610117565b60405161007c9190610b6e565b60405180910390f35b61008d61012a565b60405161009a9190610b6e565b60405180910390f35b6100ab61013b565b6040516100b89190610b6e565b60405180910390f35b6100db60048036038101906100d69190610bba565b61014e565b005b6100e561065d565b6040516100f29190610c00565b60405180910390f35b61011560048036038101906101109190610ca5565b610663565b005b600260009054906101000a900460ff1681565b60008054906101000a900460ff1681565b600060019054906101000a900460ff1681565b6000600560008360ff168152602001908152602001600020905060008160000154036101af576040517f08c379a00000000000000000000000000000000000000000000000000000000081526004016101a690610d55565b60405180910390fd5b80600101548160060160009054906101000a900473ffffffffffffffffffffffffffffffffffffffff1673ffffffffffffffffffffffffffffffffffffffff166370a08231306040518263ffffffff1660e01b81526004016102119190610d84565b602060405180830381865afa15801561022e573d6000803e3d6000fd5b505050506040513d601f19601f820116820180604052508101906102529190610db4565b1015610293576040517f08c379a000000000000000000000000000000000000000000000000000000000815260040161028a90610e2d565b60405180910390fd5b8060030160149054906101000a900460ff16156102e5576040517f08c379a00000000000000000000000000000000000000000000000000000000081526004016102dc90610e99565b60405180910390fd5b60008054906101000a900460ff1660ff1681600501541061033b576040517f08c379a000000000000000000000000000000000000000000000000000000000815260040161033290610f05565b60405180910390fd5b600460003373ffffffffffffffffffffffffffffffffffffffff1673ffffffffffffffffffffffffffffffffffffffff16815260200190815260200160002060009054906101000a900460ff166103c7576040517f08c379a00000000000000000000000000000000000000000000000000000000081526004016103be90610f71565b60405180910390fd5b600660003373ffffffffffffffffffffffffffffffffffffffff1673ffffffffffffffffffffffffffffffffffffffff16815260200190815260200160002060008360ff16815260200190815260200160002060009054906101000a900460ff1615610468576040517f08c379a000000000000000000000000000000000000000000000000000000000815260040161045f90610fdd565b60405180910390fd5b6001600660003373ffffffffffffffffffffffffffffffffffffffff1673ffffffffffffffffffffffffffffffffffffffff16815260200190815260200160002060008460ff16815260200190815260200160002060006101000a81548160ff02191690831515021790555060018160050160008282546104e9919061102c565b9250508190555080600701339080600181540180825580915050600190039060005260206000200160009091909190916101000a81548173ffffffffffffffffffffffffffffffffffffffff021916908373ffffffffffffffffffffffffffffffffffffffff16021790555060008054906101000a900460ff1660ff168160050154036106595760018160030160146101000a81548160ff0219169083151502179055508060060160009054906101000a900473ffffffffffffffffffffffffffffffffffffffff1673ffffffffffffffffffffffffffffffffffffffff1663a9059cbb8260030160009054906101000a900473ffffffffffffffffffffffffffffffffffffffff1683600101546040518363ffffffff1660e01b8152600401610614929190611060565b6020604051808303816000875af1158015610633573d6000803e3d6000fd5b505050506040513d601f19601f8201168201806040525081019061065791906110c1565b505b5050565b60015481565b600073ffffffffffffffffffffffffffffffffffffffff163373ffffffffffffffffffffffffffffffffffffffff16036106d2576040517f08c379a00000000000000000000000000000000000000000000000000000000081526004016106c99061113a565b60405180910390fd5b600460003373ffffffffffffffffffffffffffffffffffffffff1673ffffffffffffffffffffffffffffffffffffffff16815260200190815260200160002060009054906101000a900460ff1661075e576040517f08c379a0000000000000000000000000000000000000000000000000000000008152600401610755906111a6565b60405180910390fd5b600083116107a1576040517f08c379a000000000000000000000000000000000000000000000000000000000815260040161079890611212565b60405180910390fd5b600073ffffffffffffffffffffffffffffffffffffffff168273ffffffffffffffffffffffffffffffffffffffff1603610810576040517f08c379a00000000000000000000000000000000000000000000000000000000081526004016108079061113a565b60405180910390fd5b600073ffffffffffffffffffffffffffffffffffffffff168173ffffffffffffffffffffffffffffffffffffffff160361087f576040517f08c379a00000000000000000000000000000000000000000000000000000000081526004016108769061113a565b60405180910390fd5b828173ffffffffffffffffffffffffffffffffffffffff166370a08231306040518263ffffffff1660e01b81526004016108b99190610d84565b602060405180830381865afa1580156108d6573d6000803e3d6000fd5b505050506040513d601f19601f820116820180604052508101906108fa9190610db4565b101561093b576040517f08c379a000000000000000000000000000000000000000000000000000000000815260040161093290610e2d565b60405180910390fd5b60006001805461094b919061102c565b90506000600560008381526020019081526020016000209050818160000181905550848160010181905550838160030160006101000a81548173ffffffffffffffffffffffffffffffffffffffff021916908373ffffffffffffffffffffffffffffffffffffffff160217905550338160020160006101000a81548173ffffffffffffffffffffffffffffffffffffffff021916908373ffffffffffffffffffffffffffffffffffffffff160217905550428160040181905550828160060160006101000a81548173ffffffffffffffffffffffffffffffffffffffff021916908373ffffffffffffffffffffffffffffffffffffffff1602179055506001816005016000828254610a5d919061102c565b9250508190555080600701339080600181540180825580915050600190039060005260206000200160009091909190916101000a81548173ffffffffffffffffffffffffffffffffffffffff021916908373ffffffffffffffffffffffffffffffffffffffff1602179055506001600660003373ffffffffffffffffffffffffffffffffffffffff1673ffffffffffffffffffffffffffffffffffffffff168152602001908152602001600020600084815260200190815260200160002060006101000a81548160ff0219169083151502179055506001806000828254610b44919061102c565b925050819055505050505050565b600060ff82169050919050565b610b6881610b52565b82525050565b6000602082019050610b836000830184610b5f565b92915050565b600080fd5b610b9781610b52565b8114610ba257600080fd5b50565b600081359050610bb481610b8e565b92915050565b600060208284031215610bd057610bcf610b89565b5b6000610bde84828501610ba5565b91505092915050565b6000819050919050565b610bfa81610be7565b82525050565b6000602082019050610c156000830184610bf1565b92915050565b610c2481610be7565b8114610c2f57600080fd5b50565b600081359050610c4181610c1b565b92915050565b600073ffffffffffffffffffffffffffffffffffffffff82169050919050565b6000610c7282610c47565b9050919050565b610c8281610c67565b8114610c8d57600080fd5b50565b600081359050610c9f81610c79565b92915050565b600080600060608486031215610cbe57610cbd610b89565b5b6000610ccc86828701610c32565b9350506020610cdd86828701610c90565b9250506040610cee86828701610c90565b9150509250925092565b600082825260208201905092915050565b7f696e76616c696420747820696400000000000000000000000000000000000000600082015250565b6000610d3f600d83610cf8565b9150610d4a82610d09565b602082019050919050565b60006020820190508181036000830152610d6e81610d32565b9050919050565b610d7e81610c67565b82525050565b6000602082019050610d996000830184610d75565b92915050565b600081519050610dae81610c1b565b92915050565b600060208284031215610dca57610dc9610b89565b5b6000610dd884828501610d9f565b91505092915050565b7f696e73756666696369656e742066756e64730000000000000000000000000000600082015250565b6000610e17601283610cf8565b9150610e2282610de1565b602082019050919050565b60006020820190508181036000830152610e4681610e0a565b9050919050565b7f7472616e73616374696f6e20616c726561647920636f6d706c65746564000000600082015250565b6000610e83601d83610cf8565b9150610e8e82610e4d565b602082019050919050565b60006020820190508181036000830152610eb281610e76565b9050919050565b7f617070726f76616c7320616c7265616479207265616368656400000000000000600082015250565b6000610eef601983610cf8565b9150610efa82610eb9565b602082019050919050565b60006020820190508181036000830152610f1e81610ee2565b9050919050565b7f6e6f7420612076616c6964207369676e65720000000000000000000000000000600082015250565b6000610f5b601283610cf8565b9150610f6682610f25565b602082019050919050565b60006020820190508181036000830152610f8a81610f4e565b9050919050565b7f63616e2774207369676e20747769636500000000000000000000000000000000600082015250565b6000610fc7601083610cf8565b9150610fd282610f91565b602082019050919050565b60006020820190508181036000830152610ff681610fba565b9050919050565b7f4e487b7100000000000000000000000000000000000000000000000000000000600052601160045260246000fd5b600061103782610be7565b915061104283610be7565b925082820190508082111561105a57611059610ffd565b5b92915050565b60006040820190506110756000830185610d75565b6110826020830184610bf1565b9392505050565b60008115159050919050565b61109e81611089565b81146110a957600080fd5b50565b6000815190506110bb81611095565b92915050565b6000602082840312156110d7576110d6610b89565b5b60006110e5848285016110ac565b91505092915050565b7f61646472657373207a65726f20666f756e640000000000000000000000000000600082015250565b6000611124601283610cf8565b915061112f826110ee565b602082019050919050565b6000602082019050818103600083015261115381611117565b9050919050565b7f696e76616c6964207369676e6572000000000000000000000000000000000000600082015250565b6000611190600e83610cf8565b915061119b8261115a565b602082019050919050565b600060208201905081810360008301526111bf81611183565b9050919050565b7f63616e27742073656e64207a65726f20616d6f756e7400000000000000000000600082015250565b60006111fc601683610cf8565b9150611207826111c6565b602082019050919050565b6000602082019050818103600083015261122b816111ef565b905091905056fea2646970667358221220e5b9b4e811939da4eca7f545b2a5181b49e0f7a71ac2bcc1d921a6b55209759864736f6c63430008180033",
  "linkReferences": {},
  "deployedLinkReferences": {}
}